:060000000200290200CB02
:03000B000200EB05
:0100130032BA
:01001B0032B2
:030023000202E3F3
:200082007522007523007524007525FF7526FF7527647528C8752A08752D00752E00752F6E
:2000A20000753000756000756100756200756300C200C201C202C203C204D205C206C20703
:0900C200C208C20AC2B7020026FE
:030026000204D6FB
:2000CB00C0E0C0D0C2A820900A74FE2522400C0522800874FE252340020523D0D0D0E03267
:2000EB00C0E0C0D0D5240B200103300205852A24B2B1D5283F7528C8D52705752764D200BC
:20010B00300207B203200302C2022090117402B5220630B203752203D290C291800F7402B0
:20012B00B5230630B203752303D291C290D2A8120436800312042ED0D0D0E032C0E0C0D062
:20014B00E528C39529500224C804B528FDD0D0D0E022AF82A20B92B4C2B5EFA2E4920C9238
:20016B0094EFA2E5920C9295EFA2E6920C9296EF33920C9297752902120147D2B775290856
:20018B00120147C2B7752904120147D2B5D2B422AF8274F05FFEA20D920B8E82C00712012E
:2001AB005DD007EFC454F0FF74F05FFEA20D920B8E8212015D22AF82C20D8F8212019B7527
:2001CB00F064E556842430F55175F064E5568485F05675F00AE556842430F55275F00AE5F7
:2001EB005684E5F02430F5537F00EFB5570CD20D75822EC00712019BD007EF2451F987826D
:20020B00D20DC00712019BD0070FBF030040DB22C2B7C20075276410000280FBC20B75820E
:20022B003012015D2090FD2091FDC20B75823012015D2090FD2091FDC20B75823012015D95
:20024B00752904120147C20B75822012015D7529041201477F00EF90079893FEC20D8E823A
:20026B00C00712019BD0072090FD2091FD0FBF040040E322D2B975A893758922758ACE7518
:20028B008CCE758BF3758DF37587807598C8D28CD28E12021B22D2B4D2B4C2B4227F00C2CC
:2002AB00B4C293D2B51202A11202A1A20992B51202A1D2B51202A17E08EF2FFDA2B5E43347
:2002CB00FC4DFF1202A1DEF17E081202A1DEFBD293D2B5D2B48F8222109802800785992B14
:2002EB00D2048004C299D20532AF827E00C3EE9F500B10050280FB7599200E80F0AE58BED9
:20030B000500501AEEB55A0810050280FB75992E10050280FBEE2451F987990E80E122AE43
:20032B0082AF83755120755220C374E79E74039F50567508107509278E828F83C007C006D8
:20034B001206C9AC82D006D00774302CF5517508107509278E828F8312070FAE82AF83756D
:20036B0008E8750903C007C0061206C9AC82D006D00774302CF5527508E87509038E828F1C
:20038B008312070FAE82AF837508647509008E828F83C007C0061206C9AC82D006D0077407
:2003AB00302CF5537508647509008E828F8312070FAE82AF8375080A750900C007C00612DF
:2003CB0006C9AC82D006D00774302CF55475080A7509008E828F8312070FAE8274302EF509
:2003EB005522AF82AD5B7E008D828E83C00712032AD007055C055C755802755900855C5A2D
:20040B008F821202F422AF82855D82855E83C00712032AD007E4F558F559855F5A8F8212DE
:20042B0002F422E563B52802D2B322C2B3227F00D20E756300200E030204D57403B5220B98
:20044B00752200EF2460F9E7FE04F77403B5230B752300EF2460F9E7FE14F7EF701085600C
:20046B0056755702758281C0071201C1D007BF0110856156755702758286C0071201C1D0A1
:20048B0007BF021085625675570275828BC0071201C1D007C2007527FF7402B5220280F955
:2004AB0030000B752200C2000FBF03027F00C2007527FF7402B5230280F9200003020440BC
:2004CB00752300C200C20E02044022756446E4F565F566F568F569F56EF56F12027FC2B33D
:2004EB00C209C20D75828012019B7E00EE90079C93FAD20D8A82C00612019BD0060EBE0CF9
:20050B000040E9C20D7582C012019B7E00EE9007A993FAD20D8A82C00612019BD0060EBE39
:20052B000C0040E91204397403B5220575220005647403B5230575230015647402B5221116
:20054B007402B5230CE4F522F523F56EF56F1204398564567557037582C41201C185655630
:20056B007557037582CC1201C185665B755C037582001203ED85685D85695E755F05758291
:20058B000212041185635B755C037582021203ED856E5D856F5E755F05758202120411106A
:2005AB00050280FB75990DC2091202A8858265856667E565C39564F56685666A3395E0F5FB
:2005CB006BAA6AAE6BE567F56C3395E0F56DAD6CAF6DE56AC3956CFBE56B956DFC85600843
:2005EB007509008A828E83C007C005C004C0031206F275080A75090012075CAA82AE83D091
:20060B0003D004D005D0078561087509008D828F83C006C004C003C0021206F275080A75AA
:20062B00090012075CAD82AF83D002D003D004D0068562087509008B828C83C007C006C0AB
:20064B0005C0021206F275080A75090012075CAB82AC83D002D005D006D007EA2568FAEE35
:20066B003569FEED2AFDEF3EFFEB2DF568EC3FF569C374FF956874808569F063F08095F038
:20068B0050067568FF756900E56930E705E4F568F5698568088569099000C71206F275086C
:1E06AB00FF75090012075CAE82AF838E6310000280FB056EE4B56E02056F0205322214
:1E07980028060E0170202020206920202020642000536574702020202054656D7000F7
:2006C9007A10E4FBFCE58225E0F582E58333F583EB33FBEC33FCEB9508F5F0EC9509400645
:0906E900FCABF0438201DADD22D2
:06005800E478FFF6D8FD7C
:200036007900E94400601B7A009007B6780175A000E493F2A308B8000205A0D9F4DAF275B3
:02005600A0FF09
:1D06F200E5828508F0A4C582C0F08509F0A4D0F025F0C5838508F0A42583F58322CA
:20070F00E508450960467A01E50825E0F508E509334012F509E5829508E583950940030AB7
:20072F0080E6C3E50913F509E50813F508C3E5829508F5F0E58395094005F58385F082C35C
:0D074F00E50913F509E50813F508DAE122C4
:20005E007800E84400600A790175A000E4F309D8FC7800E84400600C7900900001E4F0A3A0
:04007E00D8FCD9FAD7
:0D0029007581B7120794E58260030200267E
:20075C00C2D5E58330E70DD2D5E4C39582F582E49583F583E50930E70DB2D5E4C39508F538
:18077C0008E49509F5091206C930D50BE4C39582F582E49583F5832221
:040794007582002248
:00000001FF
